{
  "address": "0xc3d45Ad1C96c071109956C8f07d8d5F5264e24ba",
  "abi": [
    {
      "inputs": [
        {
          "internalType": "string",
          "name": "_name",
          "type": "string"
        },
        {
          "internalType": "string",
          "name": "_symbol",
          "type": "string"
        },
        {
          "internalType": "string",
          "name": "_initBaseURI",
          "type": "string"
        },
        {
          "internalType": "string",
          "name": "_initNotRevealedUri",
          "type": "string"
        }
      ],
      "stateMutability": "nonpayable",
      "type": "constructor"
    },
    {
      "anonymous": false,
      "inputs": [
        {
          "indexed": true,
          "internalType": "address",
          "name": "owner",
          "type": "address"
        },
        {
          "indexed": true,
          "internalType": "address",
          "name": "approved",
          "type": "address"
        },
        {
          "indexed": true,
          "internalType": "uint256",
          "name": "tokenId",
          "type": "uint256"
        }
      ],
      "name": "Approval",
      "type": "event"
    },
    {
      "anonymous": false,
      "inputs": [
        {
          "indexed": true,
          "internalType": "address",
          "name": "owner",
          "type": "address"
        },
        {
          "indexed": true,
          "internalType": "address",
          "name": "operator",
          "type": "address"
        },
        {
          "indexed": false,
          "internalType": "bool",
          "name": "approved",
          "type": "bool"
        }
      ],
      "name": "ApprovalForAll",
      "type": "event"
    },
    {
      "anonymous": false,
      "inputs": [
        {
          "indexed": true,
          "internalType": "address",
          "name": "previousOwner",
          "type": "address"
        },
        {
          "indexed": true,
          "internalType": "address",
          "name": "newOwner",
          "type": "address"
        }
      ],
      "name": "OwnershipTransferred",
      "type": "event"
    },
    {
      "anonymous": false,
      "inputs": [
        {
          "indexed": true,
          "internalType": "address",
          "name": "from",
          "type": "address"
        },
        {
          "indexed": true,
          "internalType": "address",
          "name": "to",
          "type": "address"
        },
        {
          "indexed": true,
          "internalType": "uint256",
          "name": "tokenId",
          "type": "uint256"
        }
      ],
      "name": "Transfer",
      "type": "event"
    },
    {
      "inputs": [],
      "name": "USDT",
      "outputs": [
        {
          "internalType": "address",
          "name": "",
          "type": "address"
        }
      ],
      "stateMutability": "view",
      "type": "function"
    },
    {
      "inputs": [
        {
          "internalType": "address",
          "name": "to",
          "type": "address"
        },
        {
          "internalType": "uint256",
          "name": "tokenId",
          "type": "uint256"
        }
      ],
      "name": "approve",
      "outputs": [],
      "stateMutability": "nonpayable",
      "type": "function"
    },
    {
      "inputs": [
        {
          "internalType": "address",
          "name": "owner",
          "type": "address"
        }
      ],
      "name": "balanceOf",
      "outputs": [
        {
          "internalType": "uint256",
          "name": "",
          "type": "uint256"
        }
      ],
      "stateMutability": "view",
      "type": "function"
    },
    {
      "inputs": [],
      "name": "baseExtension",
      "outputs": [
        {
          "internalType": "string",
          "name": "",
          "type": "string"
        }
      ],
      "stateMutability": "view",
      "type": "function"
    },
    {
      "inputs": [],
      "name": "baseURI",
      "outputs": [
        {
          "internalType": "string",
          "name": "",
          "type": "string"
        }
      ],
      "stateMutability": "view",
      "type": "function"
    },
    {
      "inputs": [],
      "name": "cost",
      "outputs": [
        {
          "internalType": "uint256",
          "name": "",
          "type": "uint256"
        }
      ],
      "stateMutability": "view",
      "type": "function"
    },
    {
      "inputs": [],
      "name": "deleteDefaultRoyalty",
      "outputs": [],
      "stateMutability": "nonpayable",
      "type": "function"
    },
    {
      "inputs": [
        {
          "internalType": "uint256",
          "name": "tokenId",
          "type": "uint256"
        }
      ],
      "name": "getApproved",
      "outputs": [
        {
          "internalType": "address",
          "name": "",
          "type": "address"
        }
      ],
      "stateMutability": "view",
      "type": "function"
    },
    {
      "inputs": [],
      "name": "getLatestPrice",
      "outputs": [
        {
          "internalType": "int256",
          "name": "",
          "type": "int256"
        }
      ],
      "stateMutability": "view",
      "type": "function"
    },
    {
      "inputs": [],
      "name": "getNumberOfWLAddresses",
      "outputs": [
        {
          "internalType": "uint256",
          "name": "",
          "type": "uint256"
        }
      ],
      "stateMutability": "view",
      "type": "function"
    },
    {
      "inputs": [],
      "name": "getUsdtAmount",
      "outputs": [
        {
          "internalType": "uint256",
          "name": "",
          "type": "uint256"
        }
      ],
      "stateMutability": "view",
      "type": "function"
    },
    {
      "inputs": [
        {
          "internalType": "uint256",
          "name": "i",
          "type": "uint256"
        }
      ],
      "name": "getWLAddress",
      "outputs": [
        {
          "internalType": "address",
          "name": "",
          "type": "address"
        }
      ],
      "stateMutability": "view",
      "type": "function"
    },
    {
      "inputs": [
        {
          "internalType": "address",
          "name": "addressesWL",
          "type": "address"
        }
      ],
      "name": "isAddressWL",
      "outputs": [
        {
          "internalType": "bool",
          "name": "",
          "type": "bool"
        }
      ],
      "stateMutability": "view",
      "type": "function"
    },
    {
      "inputs": [
        {
          "internalType": "address",
          "name": "owner",
          "type": "address"
        },
        {
          "internalType": "address",
          "name": "operator",
          "type": "address"
        }
      ],
      "name": "isApprovedForAll",
      "outputs": [
        {
          "internalType": "bool",
          "name": "",
          "type": "bool"
        }
      ],
      "stateMutability": "view",
      "type": "function"
    },
    {
      "inputs": [],
      "name": "maxMintAmount",
      "outputs": [
        {
          "internalType": "uint256",
          "name": "",
          "type": "uint256"
        }
      ],
      "stateMutability": "view",
      "type": "function"
    },
    {
      "inputs": [],
      "name": "maxPerWallet",
      "outputs": [
        {
          "internalType": "uint256",
          "name": "",
          "type": "uint256"
        }
      ],
      "stateMutability": "view",
      "type": "function"
    },
    {
      "inputs": [],
      "name": "maxSupply",
      "outputs": [
        {
          "internalType": "uint256",
          "name": "",
          "type": "uint256"
        }
      ],
      "stateMutability": "view",
      "type": "function"
    },
    {
      "inputs": [
        {
          "internalType": "uint256",
          "name": "_mintAmount",
          "type": "uint256"
        }
      ],
      "name": "mint",
      "outputs": [],
      "stateMutability": "payable",
      "type": "function"
    },
    {
      "inputs": [
        {
          "internalType": "address",
          "name": "",
          "type": "address"
        }
      ],
      "name": "mintCounter",
      "outputs": [
        {
          "internalType": "uint256",
          "name": "",
          "type": "uint256"
        }
      ],
      "stateMutability": "view",
      "type": "function"
    },
    {
      "inputs": [],
      "name": "name",
      "outputs": [
        {
          "internalType": "string",
          "name": "",
          "type": "string"
        }
      ],
      "stateMutability": "view",
      "type": "function"
    },
    {
      "inputs": [],
      "name": "notRevealedUri",
      "outputs": [
        {
          "internalType": "string",
          "name": "",
          "type": "string"
        }
      ],
      "stateMutability": "view",
      "type": "function"
    },
    {
      "inputs": [],
      "name": "owner",
      "outputs": [
        {
          "internalType": "address",
          "name": "",
          "type": "address"
        }
      ],
      "stateMutability": "view",
      "type": "function"
    },
    {
      "inputs": [
        {
          "internalType": "uint256",
          "name": "tokenId",
          "type": "uint256"
        }
      ],
      "name": "ownerOf",
      "outputs": [
        {
          "internalType": "address",
          "name": "",
          "type": "address"
        }
      ],
      "stateMutability": "view",
      "type": "function"
    },
    {
      "inputs": [
        {
          "internalType": "bool",
          "name": "_state",
          "type": "bool"
        }
      ],
      "name": "pause",
      "outputs": [],
      "stateMutability": "nonpayable",
      "type": "function"
    },
    {
      "inputs": [],
      "name": "paused",
      "outputs": [
        {
          "internalType": "bool",
          "name": "",
          "type": "bool"
        }
      ],
      "stateMutability": "view",
      "type": "function"
    },
    {
      "inputs": [],
      "name": "payMethod",
      "outputs": [
        {
          "internalType": "bool",
          "name": "",
          "type": "bool"
        }
      ],
      "stateMutability": "view",
      "type": "function"
    },
    {
      "inputs": [],
      "name": "remainingItems",
      "outputs": [
        {
          "internalType": "uint256",
          "name": "",
          "type": "uint256"
        }
      ],
      "stateMutability": "view",
      "type": "function"
    },
    {
      "inputs": [],
      "name": "renounceOwnership",
      "outputs": [],
      "stateMutability": "nonpayable",
      "type": "function"
    },
    {
      "inputs": [],
      "name": "reveal",
      "outputs": [],
      "stateMutability": "nonpayable",
      "type": "function"
    },
    {
      "inputs": [],
      "name": "revealed",
      "outputs": [
        {
          "internalType": "bool",
          "name": "",
          "type": "bool"
        }
      ],
      "stateMutability": "view",
      "type": "function"
    },
    {
      "inputs": [
        {
          "internalType": "uint256",
          "name": "_tokenId",
          "type": "uint256"
        },
        {
          "internalType": "uint256",
          "name": "_salePrice",
          "type": "uint256"
        }
      ],
      "name": "royaltyInfo",
      "outputs": [
        {
          "internalType": "address",
          "name": "",
          "type": "address"
        },
        {
          "internalType": "uint256",
          "name": "",
          "type": "uint256"
        }
      ],
      "stateMutability": "view",
      "type": "function"
    },
    {
      "inputs": [
        {
          "internalType": "address",
          "name": "from",
          "type": "address"
        },
        {
          "internalType": "address",
          "name": "to",
          "type": "address"
        },
        {
          "internalType": "uint256",
          "name": "tokenId",
          "type": "uint256"
        }
      ],
      "name": "safeTransferFrom",
      "outputs": [],
      "stateMutability": "nonpayable",
      "type": "function"
    },
    {
      "inputs": [
        {
          "internalType": "address",
          "name": "from",
          "type": "address"
        },
        {
          "internalType": "address",
          "name": "to",
          "type": "address"
        },
        {
          "internalType": "uint256",
          "name": "tokenId",
          "type": "uint256"
        },
        {
          "internalType": "bytes",
          "name": "data",
          "type": "bytes"
        }
      ],
      "name": "safeTransferFrom",
      "outputs": [],
      "stateMutability": "nonpayable",
      "type": "function"
    },
    {
      "inputs": [
        {
          "internalType": "address[]",
          "name": "addresses_",
          "type": "address[]"
        }
      ],
      "name": "setAddressesWL",
      "outputs": [],
      "stateMutability": "nonpayable",
      "type": "function"
    },
    {
      "inputs": [
        {
          "internalType": "address",
          "name": "operator",
          "type": "address"
        },
        {
          "internalType": "bool",
          "name": "approved",
          "type": "bool"
        }
      ],
      "name": "setApprovalForAll",
      "outputs": [],
      "stateMutability": "nonpayable",
      "type": "function"
    },
    {
      "inputs": [
        {
          "internalType": "string",
          "name": "_newBaseExtension",
          "type": "string"
        }
      ],
      "name": "setBaseExtension",
      "outputs": [],
      "stateMutability": "nonpayable",
      "type": "function"
    },
    {
      "inputs": [
        {
          "internalType": "string",
          "name": "_newBaseURI",
          "type": "string"
        }
      ],
      "name": "setBaseURI",
      "outputs": [],
      "stateMutability": "nonpayable",
      "type": "function"
    },
    {
      "inputs": [
        {
          "internalType": "uint256",
          "name": "_newCost",
          "type": "uint256"
        }
      ],
      "name": "setCost",
      "outputs": [],
      "stateMutability": "nonpayable",
      "type": "function"
    },
    {
      "inputs": [
        {
          "internalType": "address",
          "name": "_receiver",
          "type": "address"
        },
        {
          "internalType": "uint96",
          "name": "_feeNumerator",
          "type": "uint96"
        }
      ],
      "name": "setDefaultRoyalty",
      "outputs": [],
      "stateMutability": "nonpayable",
      "type": "function"
    },
    {
      "inputs": [
        {
          "internalType": "uint256",
          "name": "_newMaxMintAmount",
          "type": "uint256"
        }
      ],
      "name": "setMaxMintAmount",
      "outputs": [],
      "stateMutability": "nonpayable",
      "type": "function"
    },
    {
      "inputs": [
        {
          "internalType": "uint256",
          "name": "_newMaxPerWallet",
          "type": "uint256"
        }
      ],
      "name": "setMaxPerWallet",
      "outputs": [],
      "stateMutability": "nonpayable",
      "type": "function"
    },
    {
      "inputs": [
        {
          "internalType": "string",
          "name": "_notRevealedURI",
          "type": "string"
        }
      ],
      "name": "setNotRevealedURI",
      "outputs": [],
      "stateMutability": "nonpayable",
      "type": "function"
    },
    {
      "inputs": [
        {
          "internalType": "bool",
          "name": "_newPayMethod",
          "type": "bool"
        }
      ],
      "name": "setPayMethod",
      "outputs": [],
      "stateMutability": "nonpayable",
      "type": "function"
    },
    {
      "inputs": [
        {
          "internalType": "bool",
          "name": "_state",
          "type": "bool"
        }
      ],
      "name": "setWLStage",
      "outputs": [],
      "stateMutability": "nonpayable",
      "type": "function"
    },
    {
      "inputs": [],
      "name": "soldItems",
      "outputs": [
        {
          "internalType": "uint256",
          "name": "",
          "type": "uint256"
        }
      ],
      "stateMutability": "view",
      "type": "function"
    },
    {
      "inputs": [
        {
          "internalType": "bytes4",
          "name": "interfaceId",
          "type": "bytes4"
        }
      ],
      "name": "supportsInterface",
      "outputs": [
        {
          "internalType": "bool",
          "name": "",
          "type": "bool"
        }
      ],
      "stateMutability": "view",
      "type": "function"
    },
    {
      "inputs": [],
      "name": "symbol",
      "outputs": [
        {
          "internalType": "string",
          "name": "",
          "type": "string"
        }
      ],
      "stateMutability": "view",
      "type": "function"
    },
    {
      "inputs": [
        {
          "internalType": "uint256",
          "name": "index",
          "type": "uint256"
        }
      ],
      "name": "tokenByIndex",
      "outputs": [
        {
          "internalType": "uint256",
          "name": "",
          "type": "uint256"
        }
      ],
      "stateMutability": "view",
      "type": "function"
    },
    {
      "inputs": [
        {
          "internalType": "address",
          "name": "owner",
          "type": "address"
        },
        {
          "internalType": "uint256",
          "name": "index",
          "type": "uint256"
        }
      ],
      "name": "tokenOfOwnerByIndex",
      "outputs": [
        {
          "internalType": "uint256",
          "name": "",
          "type": "uint256"
        }
      ],
      "stateMutability": "view",
      "type": "function"
    },
    {
      "inputs": [
        {
          "internalType": "uint256",
          "name": "tokenId",
          "type": "uint256"
        }
      ],
      "name": "tokenURI",
      "outputs": [
        {
          "internalType": "string",
          "name": "",
          "type": "string"
        }
      ],
      "stateMutability": "view",
      "type": "function"
    },
    {
      "inputs": [],
      "name": "totalSupply",
      "outputs": [
        {
          "internalType": "uint256",
          "name": "",
          "type": "uint256"
        }
      ],
      "stateMutability": "view",
      "type": "function"
    },
    {
      "inputs": [
        {
          "internalType": "address",
          "name": "from",
          "type": "address"
        },
        {
          "internalType": "address",
          "name": "to",
          "type": "address"
        },
        {
          "internalType": "uint256",
          "name": "tokenId",
          "type": "uint256"
        }
      ],
      "name": "transferFrom",
      "outputs": [],
      "stateMutability": "nonpayable",
      "type": "function"
    },
    {
      "inputs": [
        {
          "internalType": "address",
          "name": "newOwner",
          "type": "address"
        }
      ],
      "name": "transferOwnership",
      "outputs": [],
      "stateMutability": "nonpayable",
      "type": "function"
    },
    {
      "inputs": [],
      "name": "version",
      "outputs": [
        {
          "internalType": "uint256",
          "name": "",
          "type": "uint256"
        }
      ],
      "stateMutability": "view",
      "type": "function"
    },
    {
      "inputs": [
        {
          "internalType": "address",
          "name": "_owner",
          "type": "address"
        }
      ],
      "name": "walletOfOwner",
      "outputs": [
        {
          "internalType": "uint256[]",
          "name": "",
          "type": "uint256[]"
        }
      ],
      "stateMutability": "view",
      "type": "function"
    },
    {
      "inputs": [],
      "name": "withdraw",
      "outputs": [],
      "stateMutability": "nonpayable",
      "type": "function"
    },
    {
      "inputs": [],
      "name": "wlStage",
      "outputs": [
        {
          "internalType": "bool",
          "name": "",
          "type": "bool"
        }
      ],
      "stateMutability": "view",
      "type": "function"
    }
  ],
  "transactionHash": "0x79a7d1939c335f63264d9e7a8c4645f1136da63ad9dc9967be12fbbc6c8cb46a",
  "args": [
    "CyDreadz",
    "Cy",
    "https://gateway.pinata.cloud/ipfs/QmdXM5y8p28HM2KPinHTJFGz81ca3zT1whQAoRg2Hemzo5/",
    "https://gateway.pinata.cloud/ipfs/QmXPVdvebcZRzzkkf6qmoPUb38hpJjv9xM9JhUAbcsKQrw"
  ],
  "numDeployments": 3,
  "solcInputHash": "12287277a9567a3286c93b8a478dda10",
  "bytecode": "0x6001600e5560c06040526005608081905264173539b7b760d91b60a09081526200002d91601091906200036c565b5067016345785d8a00006011556108ae601255600460138190556014556015805463010000006201000062ffffff199092169190911763ff000000191617600160201b600160c01b03191677ba62bcfcaafc6622853cca2be6ac7d845bc0f2dc00000000179055348015620000a157600080fd5b5060405162003ccb38038062003ccb833981016040819052620000c491620004c5565b835184908490620000dd9060009060208501906200036c565b508051620000f39060019060208401906200036c565b505050620001106200010a620001b760201b60201c565b620001bb565b6200013273713aaeb4e7aa375343ea039c71d01790958cb26d6103e86200020d565b6200013d82620002cd565b6200014881620002f0565b600d80546001600160a01b03191673d4a33860578de61dbabdc8bfdb98fd742fa7028e17905560186200017a6200030f565b81546001810183556000928352602090922090910180546001600160a01b0319166001600160a01b03909216919091179055506200068292505050565b3390565b600c80546001600160a01b038381166001600160a01b0319831681179093556040519116919082907f8be0079c531659141344cd1fd0a4f28419497f9722a3daafe3b4186f6b6457e090600090a35050565b620002176200031e565b6001600160601b0316816001600160601b03161115620002545760405162461bcd60e51b81526004016200024b90620005ae565b60405180910390fd5b6001600160a01b0382166200027d5760405162461bcd60e51b81526004016200024b90620005f8565b604080518082019091526001600160a01b039283168082526001600160601b03929092166020909101819052600a80546001600160a01b031916909217909216600160a01b909202919091179055565b620002d762000324565b8051620002ec90600f9060208401906200036c565b5050565b620002fa62000324565b8051620002ec9060169060208401906200036c565b600c546001600160a01b031690565b61271090565b6200032e620001b7565b6001600160a01b0316620003416200030f565b6001600160a01b0316146200036a5760405162461bcd60e51b81526004016200024b9062000579565b565b8280546200037a906200062f565b90600052602060002090601f0160209004810192826200039e5760008555620003e9565b82601f10620003b957805160ff1916838001178555620003e9565b82800160010185558215620003e9579182015b82811115620003e9578251825591602001919060010190620003cc565b50620003f7929150620003fb565b5090565b5b80821115620003f75760008155600101620003fc565b600082601f83011262000423578081fd5b81516001600160401b03808211156200044057620004406200066c565b604051601f8301601f19908116603f011681019082821181831017156200046b576200046b6200066c565b8160405283815260209250868385880101111562000487578485fd5b8491505b83821015620004aa57858201830151818301840152908201906200048b565b83821115620004bb57848385830101525b9695505050505050565b60008060008060808587031215620004db578384fd5b84516001600160401b0380821115620004f2578586fd5b620005008883890162000412565b9550602087015191508082111562000516578485fd5b620005248883890162000412565b945060408701519150808211156200053a578384fd5b620005488883890162000412565b935060608701519150808211156200055e578283fd5b506200056d8782880162000412565b91505092959194509250565b6020808252818101527f4f776e61626c653a2063616c6c6572206973206e6f7420746865206f776e6572604082015260600190565b6020808252602a908201527f455243323938313a20726f79616c7479206665652077696c6c206578636565646040820152692073616c65507269636560b01b606082015260800190565b60208082526019908201527f455243323938313a20696e76616c696420726563656976657200000000000000604082015260600190565b6002810460018216806200064457607f821691505b602082108114156200066657634e487b7160e01b600052602260045260246000fd5b50919050565b634e487b7160e01b600052604160045260246000fd5b61363980620006926000396000f3fe6080604052600436106103765760003560e01c806355f804b3116101d1578063aa1b103f11610102578063d5abeb01116100a0578063f2abcabf1161006f578063f2abcabf14610960578063f2c4ce1e14610975578063f2fde38b14610995578063f513a671146109b557610376565b8063d5abeb01146108eb578063da3ef23f14610900578063e268e4d314610920578063e985e9c51461094057610376565b8063c54e44eb116100dc578063c54e44eb1461088c578063c6682862146108a1578063c87b56dd146108b6578063d35cde41146108d657610376565b8063aa1b103f14610837578063b88d4fde1461084c578063badd8dda1461086c57610376565b80638e15f4731161016f578063a0712d6811610149578063a0712d68146107cf578063a1e91a41146107e2578063a22cb46514610802578063a475b5dd1461082257610376565b80638e15f4731461078557806392c12c3d1461079a57806395d89b41146107ba57610376565b80636c0360eb116101ab5780636c0360eb1461072657806370a082311461073b578063715018a61461075b5780638da5cb5b1461077057610376565b806355f804b3146106d15780635c975abb146106f15780636352211e1461070657610376565b80631fd37db3116102ab57806342842e0e11610249578063453c231011610223578063453c2310146106725780634f6ccce71461068757806351830227146106a757806354fd4d50146106bc57610376565b806342842e0e14610605578063438b63001461062557806344a0d68a1461065257610376565b80632a55205a116102855780632a55205a1461058d5780632f745c59146105bb5780633c56b1b3146105db5780633ccfd60b146105f057610376565b80631fd37db314610543578063239c70ae1461055857806323b872dd1461056d57610376565b8063095ea7b3116103185780631551be4a116102f25780631551be4a146104d957806317bd8e5c146104f957806318160ddd1461050e5780631cdce9fe1461052357610376565b8063095ea7b31461047757806313faede61461049757806314fa99a5146104b957610376565b806306fdde031161035457806306fdde03146103f3578063081812fc14610415578063081c8c4414610442578063088a4ed01461045757610376565b806301ffc9a71461037b57806302329a29146103b157806304634d8d146103d3575b600080fd5b34801561038757600080fd5b5061039b6103963660046129f3565b6109ca565b6040516103a89190612ce6565b60405180910390f35b3480156103bd57600080fd5b506103d16103cc3660046129bb565b6109dd565b005b3480156103df57600080fd5b506103d16103ee3660046128d7565b6109ff565b3480156103ff57600080fd5b50610408610a15565b6040516103a89190612cfa565b34801561042157600080fd5b50610435610430366004612a71565b610aa7565b6040516103a89190612c1e565b34801561044e57600080fd5b50610408610ace565b34801561046357600080fd5b506103d1610472366004612a71565b610b5c565b34801561048357600080fd5b506103d16104923660046128ae565b610b69565b3480156104a357600080fd5b506104ac610c0a565b6040516103a89190612cf1565b3480156104c557600080fd5b506103d16104d43660046129bb565b610c10565b3480156104e557600080fd5b5061039b6104f4366004612778565b610c36565b34801561050557600080fd5b5061039b610caf565b34801561051a57600080fd5b506104ac610cb8565b34801561052f57600080fd5b506104ac61053e366004612778565b610cbe565b34801561054f57600080fd5b506104ac610cd0565b34801561056457600080fd5b506104ac610cec565b34801561057957600080fd5b506103d16105883660046127c4565b610cf2565b34801561059957600080fd5b506105ad6105a8366004612aa1565b610d2a565b6040516103a8929190612c89565b3480156105c757600080fd5b506104ac6105d63660046128ae565b610de3565b3480156105e757600080fd5b506104ac610e35565b3480156105fc57600080fd5b506103d1610e3b565b34801561061157600080fd5b506103d16106203660046127c4565b610eb6565b34801561063157600080fd5b50610645610640366004612778565b610ed1565b6040516103a89190612ca2565b34801561065e57600080fd5b506103d161066d366004612a71565b610f8f565b34801561067e57600080fd5b506104ac610f9c565b34801561069357600080fd5b506104ac6106a2366004612a71565b610fa2565b3480156106b357600080fd5b5061039b610ffd565b3480156106c857600080fd5b506104ac61100c565b3480156106dd57600080fd5b506103d16106ec366004612a2b565b611012565b3480156106fd57600080fd5b5061039b61102d565b34801561071257600080fd5b50610435610721366004612a71565b61103b565b34801561073257600080fd5b5061040861106f565b34801561074757600080fd5b506104ac610756366004612778565b61107c565b34801561076757600080fd5b506103d16110c0565b34801561077c57600080fd5b506104356110d4565b34801561079157600080fd5b506104ac6110e3565b3480156107a657600080fd5b506103d16107b53660046129bb565b611177565b3480156107c657600080fd5b50610408611192565b6103d16107dd366004612a71565b6111a1565b3480156107ee57600080fd5b506103d16107fd36600461290d565b611482565b34801561080e57600080fd5b506103d161081d366004612878565b611505565b34801561082e57600080fd5b506103d1611517565b34801561084357600080fd5b506103d1611532565b34801561085857600080fd5b506103d16108673660046127ff565b611542565b34801561087857600080fd5b50610435610887366004612a71565b61157b565b34801561089857600080fd5b506104356115b9565b3480156108ad57600080fd5b506104086115d0565b3480156108c257600080fd5b506104086108d1366004612a71565b6115dd565b3480156108e257600080fd5b506104ac611705565b3480156108f757600080fd5b506104ac611735565b34801561090c57600080fd5b506103d161091b366004612a2b565b61173b565b34801561092c57600080fd5b506103d161093b366004612a71565b611756565b34801561094c57600080fd5b5061039b61095b366004612792565b611763565b34801561096c57600080fd5b5061039b611791565b34801561098157600080fd5b506103d1610990366004612a2b565b6117a1565b3480156109a157600080fd5b506103d16109b0366004612778565b6117bc565b3480156109c157600080fd5b506104ac6117f3565b60006109d5826117fd565b90505b919050565b6109e5611822565b601580549115156101000261ff0019909216919091179055565b610a07611822565b610a118282611861565b5050565b606060008054610a249061355d565b80601f0160208091040260200160405190810160405280929190818152602001828054610a509061355d565b8015610a9d5780601f10610a7257610100808354040283529160200191610a9d565b820191906000526020600020905b815481529060010190602001808311610a8057829003601f168201915b5050505050905090565b6000610ab282611910565b506000908152600460205260409020546001600160a01b031690565b60168054610adb9061355d565b80601f0160208091040260200160405190810160405280929190818152602001828054610b079061355d565b8015610b545780601f10610b2957610100808354040283529160200191610b54565b820191906000526020600020905b815481529060010190602001808311610b3757829003601f168201915b505050505081565b610b64611822565b601355565b6000610b748261103b565b9050806001600160a01b0316836001600160a01b03161415610bb15760405162461bcd60e51b8152600401610ba89061320e565b60405180910390fd5b806001600160a01b0316610bc3611935565b6001600160a01b03161480610bdf5750610bdf8161095b611935565b610bfb5760405162461bcd60e51b8152600401610ba89061324f565b610c058383611939565b505050565b60115481565b610c18611822565b6015805491151563010000000263ff00000019909216919091179055565b6000805b601854811015610ca657826001600160a01b031660188281548110610c6f57634e487b7160e01b600052603260045260246000fd5b6000918252602090912001546001600160a01b03161415610c945760019150506109d8565b80610c9e81613598565b915050610c3a565b50600092915050565b60155460ff1681565b60085490565b60176020526000908152604090205481565b6000610cda610cb8565b601254610ce7919061351a565b905090565b60135481565b610d03610cfd611935565b826119a7565b610d1f5760405162461bcd60e51b8152600401610ba890612d0d565b610c05838383611a06565b6000828152600b602090815260408083208151808301909252546001600160a01b038116808352600160a01b9091046001600160601b0316928201929092528291610d9f575060408051808201909152600a546001600160a01b0381168252600160a01b90046001600160601b031660208201525b6000610da9611b43565b6001600160601b031682602001516001600160601b031686610dcb91906134fb565b610dd591906134db565b915196919550909350505050565b6000610dee8361107c565b8210610e0c5760405162461bcd60e51b8152600401610ba890612d91565b506001600160a01b03919091166000908152600660209081526040808320938352929052205490565b60185490565b610e43611822565b6000610e4d6110d4565b6001600160a01b031647604051610e6390612c1b565b60006040518083038185875af1925050503d8060008114610ea0576040519150601f19603f3d011682016040523d82523d6000602084013e610ea5565b606091505b5050905080610eb357600080fd5b50565b610c0583838360405180602001604052806000815250611542565b60606000610ede8361107c565b905060008167ffffffffffffffff811115610f0957634e487b7160e01b600052604160045260246000fd5b604051908082528060200260200182016040528015610f32578160200160208202803683370190505b50905060005b82811015610f8757610f4a8582610de3565b828281518110610f6a57634e487b7160e01b600052603260045260246000fd5b602090810291909101015280610f7f81613598565b915050610f38565b509392505050565b610f97611822565b601155565b60145481565b6000610fac610cb8565b8210610fca5760405162461bcd60e51b8152600401610ba8906132e3565b60088281548110610feb57634e487b7160e01b600052603260045260246000fd5b90600052602060002001549050919050565b60155462010000900460ff1681565b600e5481565b61101a611822565b8051610a1190600f906020840190612656565b601554610100900460ff1681565b60008061104783611b49565b90506001600160a01b0381166109d55760405162461bcd60e51b8152600401610ba8906131b4565b600f8054610adb9061355d565b60006001600160a01b0382166110a45760405162461bcd60e51b8152600401610ba890612fe8565b506001600160a01b031660009081526003602052604090205490565b6110c8611822565b6110d26000611b64565b565b600c546001600160a01b031690565b600080600d60009054906101000a90046001600160a01b03166001600160a01b031663feaf968c6040518163ffffffff1660e01b815260040160a06040518083038186803b15801561113457600080fd5b505afa158015611148573d6000803e3d6000fd5b505050506040513d601f19601f8201168201806040525081019061116c9190612ac2565b509194505050505090565b61117f611822565b6015805460ff1916911515919091179055565b606060018054610a249061355d565b60006111ab610cb8565b905060006111b7611935565b601554909150610100900460ff16156111e25760405162461bcd60e51b8152600401610ba890613418565b600083116112025760405162461bcd60e51b8152600401610ba890612f6b565b6013548311156112245760405162461bcd60e51b8152600401610ba890613081565b6014546001600160a01b03821660009081526017602052604090205461124b9085906134c3565b11156112695760405162461bcd60e51b8152600401610ba890613171565b6001600160a01b03811660009081526017602052604090205461128d9084906134c3565b6001600160a01b0382166000908152601760205260409020556012546112b384846134c3565b11156112d15760405162461bcd60e51b8152600401610ba8906131eb565b6112d96110d4565b6001600160a01b0316816001600160a01b03161461141d576015546301000000900460ff1615611335578260115461131191906134fb565b3410156113305760405162461bcd60e51b8152600401610ba890612d5a565b61141d565b600061133f611705565b905061134b84826134fb565b601554604051636eb1769f60e11b81526401000000009091046001600160a01b03169063dd62ed3e906113849033903090600401612c32565b60206040518083038186803b15801561139c57600080fd5b505afa1580156113b0573d6000803e3d6000fd5b505050506040513d601f19601f820116820180604052508101906113d49190612a89565b10156113f25760405162461bcd60e51b8152600401610ba890613031565b61141b3061140086846134fb565b60155464010000000090046001600160a01b03169190611bb6565b505b60155460ff161561144d5761143181610c36565b61144d5760405162461bcd60e51b8152600401610ba890613058565b60015b83811161147c5761146a8261146583866134c3565b611c0c565b8061147481613598565b915050611450565b50505050565b61148a611822565b60005b8151811015610a115760188282815181106114b857634e487b7160e01b600052603260045260246000fd5b60209081029190910181015182546001810184556000938452919092200180546001600160a01b0319166001600160a01b03909216919091179055806114fd81613598565b91505061148d565b610a11611510611935565b8383611c26565b61151f611822565b6015805462ff0000191662010000179055565b61153a611822565b6110d2611cc9565b61155361154d611935565b836119a7565b61156f5760405162461bcd60e51b8152600401610ba890612d0d565b61147c84848484611cd0565b60006018828154811061159e57634e487b7160e01b600052603260045260246000fd5b6000918252602090912001546001600160a01b031692915050565b60155464010000000090046001600160a01b031681565b60108054610adb9061355d565b60606115e882611d03565b6116045760405162461bcd60e51b8152600401610ba890613122565b60155462010000900460ff166116a657601680546116219061355d565b80601f016020809104026020016040519081016040528092919081815260200182805461164d9061355d565b801561169a5780601f1061166f5761010080835404028352916020019161169a565b820191906000526020600020905b81548152906001019060200180831161167d57829003601f168201915b505050505090506109d8565b60006116b0611d20565b905060008151116116d057604051806020016040528060008152506116fe565b806116da84611d2f565b60106040516020016116ee93929190612b59565b6040516020818303038152906040525b9392505050565b6000806117106110e3565b90506305f5e1008160115461172591906134fb565b61172f91906134db565b91505090565b60125481565b611743611822565b8051610a11906010906020840190612656565b61175e611822565b601455565b6001600160a01b03918216600090815260056020908152604080832093909416825291909152205460ff1690565b6015546301000000900460ff1681565b6117a9611822565b8051610a11906016906020840190612656565b6117c4611822565b6001600160a01b0381166117ea5760405162461bcd60e51b8152600401610ba890612e2e565b610eb381611b64565b6000610ce7610cb8565b60006001600160e01b0319821663152a902d60e11b14806109d557506109d582611dd2565b61182a611935565b6001600160a01b031661183b6110d4565b6001600160a01b0316146110d25760405162461bcd60e51b8152600401610ba8906130ed565b611869611b43565b6001600160601b0316816001600160601b0316111561189a5760405162461bcd60e51b8152600401610ba890613384565b6001600160a01b0382166118c05760405162461bcd60e51b8152600401610ba89061344f565b604080518082019091526001600160a01b039283168082526001600160601b03929092166020909101819052600a80546001600160a01b031916909217909216600160a01b909202919091179055565b61191981611d03565b610eb35760405162461bcd60e51b8152600401610ba8906131b4565b3390565b600081815260046020526040902080546001600160a01b0319166001600160a01b038416908117909155819061196e8261103b565b6001600160a01b03167f8c5be1e5ebec7d5bd14f71427d1e84f3dd0314c0f7b2291e5b200ac8c7c3b92560405160405180910390a45050565b6000806119b38361103b565b9050806001600160a01b0316846001600160a01b031614806119da57506119da8185611763565b806119fe5750836001600160a01b03166119f384610aa7565b6001600160a01b0316145b949350505050565b826001600160a01b0316611a198261103b565b6001600160a01b031614611a3f5760405162461bcd60e51b8152600401610ba890612e74565b6001600160a01b038216611a655760405162461bcd60e51b8152600401610ba890612ef0565b611a728383836001611df7565b826001600160a01b0316611a858261103b565b6001600160a01b031614611aab5760405162461bcd60e51b8152600401610ba890612e74565b600081815260046020908152604080832080546001600160a01b03199081169091556001600160a01b0387811680865260038552838620805460001901905590871680865283862080546001019055868652600290945282852080549092168417909155905184937fddf252ad1be2c89b69c2b068fc378daa952ba7f163c4a11628f55a4df523b3ef91a4610c05838383600161147c565b61271090565b6000908152600260205260409020546001600160a01b031690565b600c80546001600160a01b038381166001600160a01b0319831681179093556040519116919082907f8be0079c531659141344cd1fd0a4f28419497f9722a3daafe3b4186f6b6457e090600090a35050565b610c058363a9059cbb60e01b8484604051602401611bd5929190612c89565b60408051601f198184030181529190526020810180516001600160e01b03166001600160e01b031990931692909217909152611eaa565b610a11828260405180602001604052806000815250611f39565b816001600160a01b0316836001600160a01b03161415611c585760405162461bcd60e51b8152600401610ba890612f34565b6001600160a01b0383811660008181526005602090815260408083209487168084529490915290819020805460ff1916851515179055517f17307eab39ab6107e8899845ad3d59bd9653f200f220920489ca2b5937696c3190611cbc908590612ce6565b60405180910390a3505050565b6000600a55565b611cdb848484611a06565b611ce784848484611f6c565b61147c5760405162461bcd60e51b8152600401610ba890612ddc565b600080611d0f83611b49565b6001600160a01b0316141592915050565b6060600f8054610a249061355d565b60606000611d3c83612087565b600101905060008167ffffffffffffffff811115611d6a57634e487b7160e01b600052604160045260246000fd5b6040519080825280601f01601f191660200182016040528015611d94576020820181803683370190505b5090508181016020015b600019016f181899199a1a9b1b9c1cb0b131b232b360811b600a86061a8153600a8504945084611dcd57610f87565b611d9e565b60006001600160e01b0319821663780e9d6360e01b14806109d557506109d58261215f565b611e038484848461219f565b6001811115611e245760405162461bcd60e51b8152600401610ba89061332f565b816001600160a01b038516611e4157611e3c81612227565b611e64565b836001600160a01b0316856001600160a01b031614611e6457611e64858261226b565b6001600160a01b038416611e8057611e7b81612308565b611ea3565b846001600160a01b0316846001600160a01b031614611ea357611ea384826123e1565b5050505050565b6000611eff826040518060400160405280602081526020017f5361666545524332303a206c6f772d6c6576656c2063616c6c206661696c6564815250856001600160a01b03166124259092919063ffffffff16565b805190915015610c055780806020019051810190611f1d91906129d7565b610c055760405162461bcd60e51b8152600401610ba8906133ce565b611f438383612434565b611f506000848484611f6c565b610c055760405162461bcd60e51b8152600401610ba890612ddc565b6000611f80846001600160a01b0316612529565b1561207c57836001600160a01b031663150b7a02611f9c611935565b8786866040518563ffffffff1660e01b8152600401611fbe9493929190612c4c565b602060405180830381600087803b158015611fd857600080fd5b505af1925050508015612008575060408051601f3d908101601f1916820190925261200591810190612a0f565b60015b612062573d808015612036576040519150601f19603f3d011682016040523d82523d6000602084013e61203b565b606091505b50805161205a5760405162461bcd60e51b8152600401610ba890612ddc565b805181602001fd5b6001600160e01b031916630a85bd0160e11b1490506119fe565b506001949350505050565b60008072184f03e93ff9f4daa797ed6e38ed64bf6a1f0160401b83106120c65772184f03e93ff9f4daa797ed6e38ed64bf6a1f0160401b830492506040015b6d04ee2d6d415b85acef810000000083106120f2576d04ee2d6d415b85acef8100000000830492506020015b662386f26fc10000831061211057662386f26fc10000830492506010015b6305f5e1008310612128576305f5e100830492506008015b612710831061213c57612710830492506004015b6064831061214e576064830492506002015b600a83106109d55760010192915050565b60006001600160e01b031982166380ac58cd60e01b148061219057506001600160e01b03198216635b5e139f60e01b145b806109d557506109d582612538565b600181111561147c576001600160a01b038416156121e5576001600160a01b038416600090815260036020526040812080548392906121df90849061351a565b90915550505b6001600160a01b0383161561147c576001600160a01b0383166000908152600360205260408120805483929061221c9084906134c3565b909155505050505050565b600880546000838152600960205260408120829055600182018355919091527ff3f7a9fe364faab93b216da50a3214154f22a0a2b415b23a84c8169e8b636ee30155565b600060016122788461107c565b612282919061351a565b6000838152600760205260409020549091508082146122d5576001600160a01b03841660009081526006602090815260408083208584528252808320548484528184208190558352600790915290208190555b5060009182526007602090815260408084208490556001600160a01b039094168352600681528383209183525290812055565b60085460009061231a9060019061351a565b6000838152600960205260408120546008805493945090928490811061235057634e487b7160e01b600052603260045260246000fd5b90600052602060002001549050806008838154811061237f57634e487b7160e01b600052603260045260246000fd5b60009182526020808320909101929092558281526009909152604080822084905585825281205560088054806123c557634e487b7160e01b600052603160045260246000fd5b6001900381819060005260206000200160009055905550505050565b60006123ec8361107c565b6001600160a01b039093166000908152600660209081526040808320868452825280832085905593825260079052919091209190915550565b60606119fe8484600085612551565b6001600160a01b03821661245a5760405162461bcd60e51b8152600401610ba8906130b8565b61246381611d03565b156124805760405162461bcd60e51b8152600401610ba890612eb9565b61248e600083836001611df7565b61249781611d03565b156124b45760405162461bcd60e51b8152600401610ba890612eb9565b6001600160a01b038216600081815260036020908152604080832080546001019055848352600290915280822080546001600160a01b0319168417905551839291907fddf252ad1be2c89b69c2b068fc378daa952ba7f163c4a11628f55a4df523b3ef908290a4610a1160008383600161147c565b6001600160a01b03163b151590565b6001600160e01b031981166301ffc9a760e01b14919050565b6060824710156125735760405162461bcd60e51b8152600401610ba890612fa2565b600080866001600160a01b0316858760405161258f9190612b3d565b60006040518083038185875af1925050503d80600081146125cc576040519150601f19603f3d011682016040523d82523d6000602084013e6125d1565b606091505b50915091506125e2878383876125ed565b979650505050505050565b606083156126275782516126205761260485612529565b6126205760405162461bcd60e51b8152600401610ba8906132ac565b50816119fe565b6119fe838381511561263c5781518083602001fd5b8060405162461bcd60e51b8152600401610ba89190612cfa565b8280546126629061355d565b90600052602060002090601f01602090048101928261268457600085556126ca565b82601f1061269d57805160ff19168380011785556126ca565b828001600101855582156126ca579182015b828111156126ca5782518255916020019190600101906126af565b506126d69291506126da565b5090565b5b808211156126d657600081556001016126db565b600067ffffffffffffffff831115612709576127096135c9565b61271c601f8401601f1916602001613486565b905082815283838301111561273057600080fd5b828260208301376000602084830101529392505050565b80356001600160a01b03811681146109d857600080fd5b805169ffffffffffffffffffff811681146109d857600080fd5b600060208284031215612789578081fd5b6116fe82612747565b600080604083850312156127a4578081fd5b6127ad83612747565b91506127bb60208401612747565b90509250929050565b6000806000606084860312156127d8578081fd5b6127e184612747565b92506127ef60208501612747565b9150604084013590509250925092565b60008060008060808587031215612814578081fd5b61281d85612747565b935061282b60208601612747565b925060408501359150606085013567ffffffffffffffff81111561284d578182fd5b8501601f8101871361285d578182fd5b61286c878235602084016126ef565b91505092959194509250565b6000806040838503121561288a578182fd5b61289383612747565b915060208301356128a3816135df565b809150509250929050565b600080604083850312156128c0578182fd5b6128c983612747565b946020939093013593505050565b600080604083850312156128e9578182fd5b6128f283612747565b915060208301356001600160601b03811681146128a3578182fd5b6000602080838503121561291f578182fd5b823567ffffffffffffffff80821115612936578384fd5b818501915085601f830112612949578384fd5b81358181111561295b5761295b6135c9565b838102915061296b848301613486565b8181528481019084860184860187018a1015612985578788fd5b8795505b838610156129ae5761299a81612747565b835260019590950194918601918601612989565b5098975050505050505050565b6000602082840312156129cc578081fd5b81356116fe816135df565b6000602082840312156129e8578081fd5b81516116fe816135df565b600060208284031215612a04578081fd5b81356116fe816135ed565b600060208284031215612a20578081fd5b81516116fe816135ed565b600060208284031215612a3c578081fd5b813567ffffffffffffffff811115612a52578182fd5b8201601f81018413612a62578182fd5b6119fe848235602084016126ef565b600060208284031215612a82578081fd5b5035919050565b600060208284031215612a9a578081fd5b5051919050565b60008060408385031215612ab3578182fd5b50508035926020909101359150565b600080600080600060a08688031215612ad9578283fd5b612ae28661275e565b9450602086015193506040860151925060608601519150612b056080870161275e565b90509295509295909350565b60008151808452612b29816020860160208601613531565b601f01601f19169290920160200192915050565b60008251612b4f818460208701613531565b9190910192915050565b600084516020612b6c8285838a01613531565b855191840191612b7f8184848a01613531565b8554920191839060028104600180831680612b9b57607f831692505b858310811415612bb957634e487b7160e01b88526022600452602488fd5b808015612bcd5760018114612bde57612c0a565b60ff19851688528388019550612c0a565b612be78b6134b7565b895b85811015612c025781548a820152908401908801612be9565b505083880195505b50939b9a5050505050505050505050565b90565b6001600160a01b0391909116815260200190565b6001600160a01b0392831681529116602082015260400190565b6001600160a01b0385811682528416602082015260408101839052608060608201819052600090612c7f90830184612b11565b9695505050505050565b6001600160a01b03929092168252602082015260400190565b6020808252825182820181905260009190848201906040850190845b81811015612cda57835183529284019291840191600101612cbe565b50909695505050505050565b901515815260200190565b90815260200190565b6000602082526116fe6020830184612b11565b6020808252602d908201527f4552433732313a2063616c6c6572206973206e6f7420746f6b656e206f776e6560408201526c1c881bdc88185c1c1c9bdd9959609a1b606082015260800190565b6020808252601b908201527f496e73756666696369656e742066756e647320746f206d696e742e0000000000604082015260600190565b6020808252602b908201527f455243373231456e756d657261626c653a206f776e657220696e646578206f7560408201526a74206f6620626f756e647360a81b606082015260800190565b60208082526032908201527f4552433732313a207472616e7366657220746f206e6f6e20455243373231526560408201527131b2b4bb32b91034b6b83632b6b2b73a32b960711b606082015260800190565b60208082526026908201527f4f776e61626c653a206e6577206f776e657220697320746865207a65726f206160408201526564647265737360d01b606082015260800190565b60208082526025908201527f4552433732313a207472616e736665722066726f6d20696e636f72726563742060408201526437bbb732b960d91b606082015260800190565b6020808252601c908201527f4552433732313a20746f6b656e20616c7265616479206d696e74656400000000604082015260600190565b60208082526024908201527f4552433732313a207472616e7366657220746f20746865207a65726f206164646040820152637265737360e01b606082015260800190565b60208082526019908201527f4552433732313a20617070726f766520746f2063616c6c657200000000000000604082015260600190565b6020808252601c908201527f4d696e7420616d6f756e74206d7573742062652061626f766520302e00000000604082015260600190565b60208082526026908201527f416464726573733a20696e73756666696369656e742062616c616e636520666f6040820152651c8818d85b1b60d21b606082015260800190565b60208082526029908201527f4552433732313a2061646472657373207a65726f206973206e6f7420612076616040820152683634b21037bbb732b960b91b606082015260800190565b6020808252600d908201526c496e76616c696420416c6c6f7760981b604082015260600190565b6020808252600f908201526e139bdd081dda1a5d195b1a5cdd1959608a1b604082015260600190565b60208082526018908201527f557365722065786365656473206d6178207065722054582e0000000000000000604082015260600190565b6020808252818101527f4552433732313a206d696e7420746f20746865207a65726f2061646472657373604082015260600190565b6020808252818101527f4f776e61626c653a2063616c6c6572206973206e6f7420746865206f776e6572604082015260600190565b6020808252602f908201527f4552433732314d657461646174613a2055524920717565727920666f72206e6f60408201526e3732bc34b9ba32b73a103a37b5b2b760891b606082015260800190565b60208082526023908201527f557365722065786365656473206d6178207065722077616c6c6574416464726560408201526239b99760e91b606082015260800190565b60208082526018908201527f4552433732313a20696e76616c696420746f6b656e2049440000000000000000604082015260600190565b60208082526009908201526829a7a6221027aaaa1760b91b604082015260600190565b60208082526021908201527f4552433732313a20617070726f76616c20746f2063757272656e74206f776e656040820152603960f91b606082015260800190565b6020808252603d908201527f4552433732313a20617070726f76652063616c6c6572206973206e6f7420746f60408201527f6b656e206f776e6572206f7220617070726f76656420666f7220616c6c000000606082015260800190565b6020808252601d908201527f416464726573733a2063616c6c20746f206e6f6e2d636f6e7472616374000000604082015260600190565b6020808252602c908201527f455243373231456e756d657261626c653a20676c6f62616c20696e646578206f60408201526b7574206f6620626f756e647360a01b606082015260800190565b60208082526035908201527f455243373231456e756d657261626c653a20636f6e7365637574697665207472604082015274185b9cd9995c9cc81b9bdd081cdd5c1c1bdc9d1959605a1b606082015260800190565b6020808252602a908201527f455243323938313a20726f79616c7479206665652077696c6c206578636565646040820152692073616c65507269636560b01b606082015260800190565b6020808252602a908201527f5361666545524332303a204552433230206f7065726174696f6e20646964206e6040820152691bdd081cdd58d8d9595960b21b606082015260800190565b60208082526019908201527f4d696e742069732063757272656e746c79207061757365642e00000000000000604082015260600190565b60208082526019908201527f455243323938313a20696e76616c696420726563656976657200000000000000604082015260600190565b604051601f8201601f1916810167ffffffffffffffff811182821017156134af576134af6135c9565b604052919050565b60009081526020902090565b600082198211156134d6576134d66135b3565b500190565b6000826134f657634e487b7160e01b81526012600452602481fd5b500490565b6000816000190483118215151615613515576135156135b3565b500290565b60008282101561352c5761352c6135b3565b500390565b60005b8381101561354c578181015183820152602001613534565b8381111561147c5750506000910152565b60028104600182168061357157607f821691505b6020821081141561359257634e487b7160e01b600052602260045260246000fd5b50919050565b60006000198214156135ac576135ac6135b3565b5060010190565b634e487b7160e01b600052601160045260246000fd5b634e487b7160e01b600052604160045260246000fd5b8015158114610eb357600080fd5b6001600160e01b031981168114610eb357600080fdfea26469706673582212207193ccfa8640e08f3999107fe11f46587aed9fd489384db8f49baec602f02e2464736f6c63430008010033",
  "devdoc": {
    "kind": "dev",
    "methods": {
      "approve(address,uint256)": {
        "details": "See {IERC721-approve}."
      },
      "balanceOf(address)": {
        "details": "See {IERC721-balanceOf}."
      },
      "getApproved(uint256)": {
        "details": "See {IERC721-getApproved}."
      },
      "isApprovedForAll(address,address)": {
        "details": "See {IERC721-isApprovedForAll}."
      },
      "name()": {
        "details": "See {IERC721Metadata-name}."
      },
      "owner()": {
        "details": "Returns the address of the current owner."
      },
      "ownerOf(uint256)": {
        "details": "See {IERC721-ownerOf}."
      },
      "renounceOwnership()": {
        "details": "Leaves the contract without owner. It will not be possible to call `onlyOwner` functions anymore. Can only be called by the current owner. NOTE: Renouncing ownership will leave the contract without an owner, thereby removing any functionality that is only available to the owner."
      },
      "royaltyInfo(uint256,uint256)": {
        "details": "Returns how much royalty is owed and to whom, based on a sale price that may be denominated in any unit of exchange. The royalty amount is denominated and should be paid in that same unit of exchange."
      },
      "safeTransferFrom(address,address,uint256)": {
        "details": "See {IERC721-safeTransferFrom}."
      },
      "safeTransferFrom(address,address,uint256,bytes)": {
        "details": "See {IERC721-safeTransferFrom}."
      },
      "setApprovalForAll(address,bool)": {
        "details": "See {IERC721-setApprovalForAll}."
      },
      "supportsInterface(bytes4)": {
        "details": "See {IERC165-supportsInterface}."
      },
      "symbol()": {
        "details": "See {IERC721Metadata-symbol}."
      },
      "tokenByIndex(uint256)": {
        "details": "See {IERC721Enumerable-tokenByIndex}."
      },
      "tokenOfOwnerByIndex(address,uint256)": {
        "details": "See {IERC721Enumerable-tokenOfOwnerByIndex}."
      },
      "tokenURI(uint256)": {
        "details": "See {IERC721Metadata-tokenURI}."
      },
      "totalSupply()": {
        "details": "See {IERC721Enumerable-totalSupply}."
      },
      "transferFrom(address,address,uint256)": {
        "details": "See {IERC721-transferFrom}."
      },
      "transferOwnership(address)": {
        "details": "Transfers ownership of the contract to a new account (`newOwner`). Can only be called by the current owner."
      }
    },
    "version": 1
  },
  "userdoc": {
    "kind": "user",
    "methods": {},
    "version": 1
  },
  "storageLayout": {
    "storage": [
      {
        "astId": 2177,
        "contract": "contracts/Mint.sol:CyDreadzMintContract",
        "label": "_name",
        "offset": 0,
        "slot": "0",
        "type": "t_string_storage"
      },
      {
        "astId": 2179,
        "contract": "contracts/Mint.sol:CyDreadzMintContract",
        "label": "_symbol",
        "offset": 0,
        "slot": "1",
        "type": "t_string_storage"
      },
      {
        "astId": 2183,
        "contract": "contracts/Mint.sol:CyDreadzMintContract",
        "label": "_owners",
        "offset": 0,
        "slot": "2",
        "type": "t_mapping(t_uint256,t_address)"
      },
      {
        "astId": 2187,
        "contract": "contracts/Mint.sol:CyDreadzMintContract",
        "label": "_balances",
        "offset": 0,
        "slot": "3",
        "type": "t_mapping(t_address,t_uint256)"
      },
      {
        "astId": 2191,
        "contract": "contracts/Mint.sol:CyDreadzMintContract",
        "label": "_tokenApprovals",
        "offset": 0,
        "slot": "4",
        "type": "t_mapping(t_uint256,t_address)"
      },
      {
        "astId": 2197,
        "contract": "contracts/Mint.sol:CyDreadzMintContract",
        "label": "_operatorApprovals",
        "offset": 0,
        "slot": "5",
        "type": "t_mapping(t_address,t_mapping(t_address,t_bool))"
      },
      {
        "astId": 3108,
        "contract": "contracts/Mint.sol:CyDreadzMintContract",
        "label": "_ownedTokens",
        "offset": 0,
        "slot": "6",
        "type": "t_mapping(t_address,t_mapping(t_uint256,t_uint256))"
      },
      {
        "astId": 3112,
        "contract": "contracts/Mint.sol:CyDreadzMintContract",
        "label": "_ownedTokensIndex",
        "offset": 0,
        "slot": "7",
        "type": "t_mapping(t_uint256,t_uint256)"
      },
      {
        "astId": 3115,
        "contract": "contracts/Mint.sol:CyDreadzMintContract",
        "label": "_allTokens",
        "offset": 0,
        "slot": "8",
        "type": "t_array(t_uint256)dyn_storage"
      },
      {
        "astId": 3119,
        "contract": "contracts/Mint.sol:CyDreadzMintContract",
        "label": "_allTokensIndex",
        "offset": 0,
        "slot": "9",
        "type": "t_mapping(t_uint256,t_uint256)"
      },
      {
        "astId": 3478,
        "contract": "contracts/Mint.sol:CyDreadzMintContract",
        "label": "_defaultRoyaltyInfo",
        "offset": 0,
        "slot": "10",
        "type": "t_struct(RoyaltyInfo)3475_storage"
      },
      {
        "astId": 3483,
        "contract": "contracts/Mint.sol:CyDreadzMintContract",
        "label": "_tokenRoyaltyInfo",
        "offset": 0,
        "slot": "11",
        "type": "t_mapping(t_uint256,t_struct(RoyaltyInfo)3475_storage)"
      },
      {
        "astId": 1836,
        "contract": "contracts/Mint.sol:CyDreadzMintContract",
        "label": "_owner",
        "offset": 0,
        "slot": "12",
        "type": "t_address"
      },
      {
        "astId": 3678,
        "contract": "contracts/Mint.sol:CyDreadzMintContract",
        "label": "priceFeed",
        "offset": 0,
        "slot": "13",
        "type": "t_contract(AggregatorV3Interface)45"
      },
      {
        "astId": 3681,
        "contract": "contracts/Mint.sol:CyDreadzMintContract",
        "label": "version",
        "offset": 0,
        "slot": "14",
        "type": "t_uint256"
      },
      {
        "astId": 3683,
        "contract": "contracts/Mint.sol:CyDreadzMintContract",
        "label": "baseURI",
        "offset": 0,
        "slot": "15",
        "type": "t_string_storage"
      },
      {
        "astId": 3686,
        "contract": "contracts/Mint.sol:CyDreadzMintContract",
        "label": "baseExtension",
        "offset": 0,
        "slot": "16",
        "type": "t_string_storage"
      },
      {
        "astId": 3689,
        "contract": "contracts/Mint.sol:CyDreadzMintContract",
        "label": "cost",
        "offset": 0,
        "slot": "17",
        "type": "t_uint256"
      },
      {
        "astId": 3692,
        "contract": "contracts/Mint.sol:CyDreadzMintContract",
        "label": "maxSupply",
        "offset": 0,
        "slot": "18",
        "type": "t_uint256"
      },
      {
        "astId": 3695,
        "contract": "contracts/Mint.sol:CyDreadzMintContract",
        "label": "maxMintAmount",
        "offset": 0,
        "slot": "19",
        "type": "t_uint256"
      },
      {
        "astId": 3698,
        "contract": "contracts/Mint.sol:CyDreadzMintContract",
        "label": "maxPerWallet",
        "offset": 0,
        "slot": "20",
        "type": "t_uint256"
      },
      {
        "astId": 3701,
        "contract": "contracts/Mint.sol:CyDreadzMintContract",
        "label": "wlStage",
        "offset": 0,
        "slot": "21",
        "type": "t_bool"
      },
      {
        "astId": 3704,
        "contract": "contracts/Mint.sol:CyDreadzMintContract",
        "label": "paused",
        "offset": 1,
        "slot": "21",
        "type": "t_bool"
      },
      {
        "astId": 3707,
        "contract": "contracts/Mint.sol:CyDreadzMintContract",
        "label": "revealed",
        "offset": 2,
        "slot": "21",
        "type": "t_bool"
      },
      {
        "astId": 3710,
        "contract": "contracts/Mint.sol:CyDreadzMintContract",
        "label": "payMethod",
        "offset": 3,
        "slot": "21",
        "type": "t_bool"
      },
      {
        "astId": 3713,
        "contract": "contracts/Mint.sol:CyDreadzMintContract",
        "label": "USDT",
        "offset": 4,
        "slot": "21",
        "type": "t_address"
      },
      {
        "astId": 3715,
        "contract": "contracts/Mint.sol:CyDreadzMintContract",
        "label": "notRevealedUri",
        "offset": 0,
        "slot": "22",
        "type": "t_string_storage"
      },
      {
        "astId": 3719,
        "contract": "contracts/Mint.sol:CyDreadzMintContract",
        "label": "mintCounter",
        "offset": 0,
        "slot": "23",
        "type": "t_mapping(t_address,t_uint256)"
      },
      {
        "astId": 3722,
        "contract": "contracts/Mint.sol:CyDreadzMintContract",
        "label": "wlAddresses",
        "offset": 0,
        "slot": "24",
        "type": "t_array(t_address)dyn_storage"
      }
    ],
    "types": {
      "t_address": {
        "encoding": "inplace",
        "label": "address",
        "numberOfBytes": "20"
      },
      "t_array(t_address)dyn_storage": {
        "base": "t_address",
        "encoding": "dynamic_array",
        "label": "address[]",
        "numberOfBytes": "32"
      },
      "t_array(t_uint256)dyn_storage": {
        "base": "t_uint256",
        "encoding": "dynamic_array",
        "label": "uint256[]",
        "numberOfBytes": "32"
      },
      "t_bool": {
        "encoding": "inplace",
        "label": "bool",
        "numberOfBytes": "1"
      },
      "t_contract(AggregatorV3Interface)45": {
        "encoding": "inplace",
        "label": "contract AggregatorV3Interface",
        "numberOfBytes": "20"
      },
      "t_mapping(t_address,t_bool)": {
        "encoding": "mapping",
        "key": "t_address",
        "label": "mapping(address => bool)",
        "numberOfBytes": "32",
        "value": "t_bool"
      },
      "t_mapping(t_address,t_mapping(t_address,t_bool))": {
        "encoding": "mapping",
        "key": "t_address",
        "label": "mapping(address => mapping(address => bool))",
        "numberOfBytes": "32",
        "value": "t_mapping(t_address,t_bool)"
      },
      "t_mapping(t_address,t_mapping(t_uint256,t_uint256))": {
        "encoding": "mapping",
        "key": "t_address",
        "label": "mapping(address => mapping(uint256 => uint256))",
        "numberOfBytes": "32",
        "value": "t_mapping(t_uint256,t_uint256)"
      },
      "t_mapping(t_address,t_uint256)": {
        "encoding": "mapping",
        "key": "t_address",
        "label": "mapping(address => uint256)",
        "numberOfBytes": "32",
        "value": "t_uint256"
      },
      "t_mapping(t_uint256,t_address)": {
        "encoding": "mapping",
        "key": "t_uint256",
        "label": "mapping(uint256 => address)",
        "numberOfBytes": "32",
        "value": "t_address"
      },
      "t_mapping(t_uint256,t_struct(RoyaltyInfo)3475_storage)": {
        "encoding": "mapping",
        "key": "t_uint256",
        "label": "mapping(uint256 => struct ERC2981.RoyaltyInfo)",
        "numberOfBytes": "32",
        "value": "t_struct(RoyaltyInfo)3475_storage"
      },
      "t_mapping(t_uint256,t_uint256)": {
        "encoding": "mapping",
        "key": "t_uint256",
        "label": "mapping(uint256 => uint256)",
        "numberOfBytes": "32",
        "value": "t_uint256"
      },
      "t_string_storage": {
        "encoding": "bytes",
        "label": "string",
        "numberOfBytes": "32"
      },
      "t_struct(RoyaltyInfo)3475_storage": {
        "encoding": "inplace",
        "label": "struct ERC2981.RoyaltyInfo",
        "members": [
          {
            "astId": 3472,
            "contract": "contracts/Mint.sol:CyDreadzMintContract",
            "label": "receiver",
            "offset": 0,
            "slot": "0",
            "type": "t_address"
          },
          {
            "astId": 3474,
            "contract": "contracts/Mint.sol:CyDreadzMintContract",
            "label": "royaltyFraction",
            "offset": 20,
            "slot": "0",
            "type": "t_uint96"
          }
        ],
        "numberOfBytes": "32"
      },
      "t_uint256": {
        "encoding": "inplace",
        "label": "uint256",
        "numberOfBytes": "32"
      },
      "t_uint96": {
        "encoding": "inplace",
        "label": "uint96",
        "numberOfBytes": "12"
      }
    }
  }
}